:020000040800F2
:100000008807002029020008B31A0008D519000843
:10001000B11A00087B040008911F000800000000CE
:10002000000000000000000000000000B71A0008F7
:100030002707000800000000B51A0008D51A0008BC
:10004000430200084302000843020008430200087C
:10005000430200084302000843020008430200086C
:10006000430200084302000843020008430200085C
:10007000430200084302000843020008430200084C
:10008000430200084302000843020008430200083C
:10009000430200084302000843020008430200082C
:1000A000430200084302000843020008430200081C
:1000B000430200084302000843020008430200080C
:1000C00043020008430200084302000843020008FC
:1000D0004302000843020008851F0008430200088D
:1000E00043020008430200084302000843020008DC
:1000F00043020008430200084302000843020008CC
:1001000043020008430200084302000843020008BB
:1001100043020008430200084302000843020008AB
:10012000430200084302000843020008430200089B
:10013000430200084302000843020008430200088B
:10014000430200084302000843020008430200087B
:10015000430200084302000843020008430200086B
:10016000430200084302000843020008430200085B
:100170004302000843020008430200080000000098
:10018000430200084302000800F002F800F03CF8C7
:100190000AA090E8000C82448344AAF10107DA45E2
:1001A00001D100F031F8AFF2090EBAE80F0013F0F8
:1001B000010F18BFFB1A43F0010318474C3B000026
:1001C0006C3B0000103A24BF78C878C1FAD85207B7
:1001D00024BF30C830C144BF04680C6070470000C1
:1001E0000023002400250026103A28BF78C1FBD840
:1001F000520728BF30C148BF0B6070471FB503F0DE
:10020000B2FC1FBD10B510BD00F002F91146FFF79A
:10021000F5FF02F0EDFD00F020F903B4FFF7F2FF67
:1002200003BC00F023F90000094880470948004753
:10023000FEE7FEE7FEE7FEE7FEE7FEE7FEE7FEE796
:10024000FEE7FEE704480549054A064B70470000F3
:10025000691B000889010008880100208807002028
:10026000880300208803002053EA020C00F0698014
:100270002DE9F04B4FF00006002B1FBFB3FA83F5BA
:1002800003FA05F424FA05F65E4012BF1643B2FAEB
:1002900082F502FA05F4C5F120051EBF22FA05FC1D
:1002A00044EA0C04203556EA044C4FEA144418BFC3
:1002B000641C4FF000084FF00009904271EB030CF2
:1002C00039D3002919BFB1FA81F701FA07F6B0FA5C
:1002D00080F700FA07F6C7F120071EBF20FA07FCD7
:1002E00046EA0C062037B6FBF4FCA7EB0507103FE7
:1002F00007F01F0BCBF120060CFA0BFB2CFA06F6CD
:1003000044BFB3460026202FA4BF5E464FF0000B2B
:100310005BEA060C08BF4FF0010B19EB0B09ABFBB6
:10032000027C48EB0608C01B06FB02CC0BFB03CC8F
:1003300071EB0C01C1E70B46024641464846BDE859
:10034000F08B13B54FF000004FF00001AFF30080C9
:10035000BDE81C40704710B5431C02E010F8011BBB
:1003600071B18107FAD14FF0013202C88C1A8C4367
:1003700014EAC211F9D0C01A0A0603D0C01E10BD7B
:10038000C01A10BD0A0401D0801E10BD0902FCD0A5
:10039000401E10BD4FF0000200B51346944696462D
:1003A000203922BFA0E80C50A0E80C50B1F1200188
:1003B000BFF4F7AF090728BFA0E80C5048BF0CC036
:1003C0005DF804EB890028BF40F8042B08BF704794
:1003D00048BF20F8022B11F0804F18BF00F8012B06
:1003E000704770477047704710B500F009F8006813
:1003F00010BD10B5044600F003F8046010BD000005
:100400000048704724010020004870472401002064
:100410007546FFF7F9FFAE4605006946534620F0E2
:100420000700854618B020B5FFF70CFFBDE8204057
:100430004FF000064FF000074FF000084FF0000BA0
:1004400021F00701AC46ACE8C009ACE8C009ACE853
:10045000C009ACE8C0098D46704710B50446AFF33B
:1004600000802046BDE81040FFF7D7BE01491820A4
:10047000ABBEFEE7260002007047FEE700F0A6BF15
:10048000036800225A620068426A8A42FCD37047BD
:100490004068FFF7F5BF30B40129029C02D0022961
:1004A00003D005E044F2506101E042F6E0610180D2
:1004B000C3600481426030BC1046FFF7DFBF2DE906
:1004C000F0410746002500F0DBF8002401263846FD
:1004D00000F021F80028FAD028213846FFF7D8FF8D
:1004E000384600F018F880B1C4F1070106FA01F0AF
:1004F0002843C5B2384600F00EF80028FAD1641C33
:10050000082CE4DB2846BDE8F081C4F1070006FAB8
:1005100000F08543EEE70189C06800F077BA00007B
:100520002DE9F04704462DED068B00F0BCF820467F
:10053000FFF7C5FF81462046FFF7C1FF80462046F2
:10054000FFF7BDFF06462046FFF7B9FF07462046E6
:10055000FFF7B5FFF1190546494401EB0800A84231
:100560007ED1384602F048FF41EC180B0121384695
:1005700000F0DAF810EE100A03F084FA9FED3E9BCB
:1005800041EC110BB0EE490AF0EE690A01F02CFDC6
:10059000B0EE40AAF0EE60AA304602F02DFF53EC18
:1005A0001A2B02F079FF53EC182B02F0CBFC02F06F
:1005B000DDFE44F8100F404602F01EFF41EC180B20
:1005C0000121404600F0B0F810EE100A03F05AFA8C
:1005D00041EC110BB0EE490AF0EE690A01F004FD9E
:1005E000B0EE409AF0EE609A484602F005FF53ECF8
:1005F000192B02F051FF53EC182B02F0A3FC02F070
:10060000B5FE606022680146642392FBF3F030304F
:1006100020720A2092FBF0F700FB172792FBF0F202
:100620002E26A6723037E77292FBF0F700FB1722F6
:100630003032627291FBF3F23032E27391FBF0F2EE
:1006400000FB121291FBF0F166743032A27491FB40
:10065000F0F200FB1211303121742521E17400E029
:1006600005E02075B021217343216173A0732846F2
:10067000BDEC068BBDE8F0870000000000002440C0
:1006800010B586B0044614216846FFF783FE208922
:10069000009000200190012002906946E06800F07F
:1006A000BDF806B010BD30B585B004460025142154
:1006B0006846FFF76FFE208900900120019000201E
:1006C00003906946E06800F0A9F80021204600F098
:1006D00024F821882046FFF7DBFE0121204600F0A8
:1006E0001CF828212046FFF7D3FE2046FFF7C8FF5D
:1006F0002046FFF710FF40B950212046FFF7C8FE03
:100700002046FFF708FF00B101252046FFF703FF51
:100710000028FAD105B0284630BD03890A46C068D2
:10072000194600F078B970470A2202E090FBF2F017
:10073000491C1328FADC00EE101AB8EEC00A704704
:100740002DE9F0410446876D00F06AF9064694F8F9
:1007500035000025022806D08020606584F83450DA
:100760000120BDE8F0812068016821F016010160D8
:100770002068416921F080014161206C08B9A06CBA
:1007800020B12068016821F008010160206801683B
:1007900021F0010101600CE000F042F9801B052806
:1007A00007D920206065032084F8350084F8345090
:1007B000D7E720680068C007EED194F85C103F20AE
:1007C0008840B860012084F8350084F83450002057
:1007D000C7E790F83510022903D080214165012038
:1007E0007047052180F835100068016821F001018B
:1007F000016000207047000070B5044600F010F959
:100800000546601C02D004480078044400F008F952
:10081000401BA042FAD370BD0C0000202DE9F84F18
:10082000DFF8BCA1002201250AF1040B03264FF0DA
:100830000F090BF1040E00BF0B6805FA02F4234008
:10084000A34270D10F7907F00307012F01D0022FC7
:1008500016D187684FEA420806FA08FC27EA0C0717
:10086000D1F80CC00CFA08FC4CEA070CC0F808C020
:100870004768A7430C79C4F3001494403C43446098
:100880000C79E443A4070AD0C4684FEA420C06FA84
:100890000CF7BC438F6807FA0CF72743C7600C7945
:1008A00004F00304022C12D1D40800EB840CDCF811
:1008B00020405707FF0E09FA07F824EA0804D1F888
:1008C000108008FA07F848EA0408CCF82080046889
:1008D0004FEA420C06FA0CF7BC430F7907F0030706
:1008E00007FA0CF7274307604C6814F4403F70D0B8
:1008F0003C4C276847F480472760246822F00307B0
:1009000004F480440094384C07EB040CDCF80848ED
:1009100097074FEA177809FA08F7BC43334FB842F4
:1009200002D1002724E054E0314FB84201D1012721
:100930001EE0304FB84201D1022719E02E4FB842D5
:1009400001D1032714E02D4FB84201D104270FE055
:100950002B4FB84201D105270AE02A4FB84201D1F6
:10096000062705E0284FB84201D1072700E00827F5
:1009700007FA08F72743CCF80878DAF8004057461A
:10098000D1F804C09C435FEACC3C00D51C433C60DA
:10099000DBF800405F46D1F804C09C435FEA8C3C22
:1009A00000D51C433C60DEF800407746D1F804C017
:1009B0009C435FEACC2C00D51C433C60084F0C37AD
:1009C0003C68D1F804C09C435FEA8C2C00D51C43E2
:1009D0003C60521C102AFFF42FAFBDE8F88F0000D6
:1009E000003C014044380240003001400000024019
:1009F0000004024000080240000C024000100240C7
:100A00000014024000180240001C02400069084027
:100A100000D0012070470AB1816170470904FBE7EB
:100A200001488068704700000C00002070B5040089
:100A300025D094F83D00002520B984F83C5020468C
:100A400000F0B8F8242084F83D002068016821F007
:100A5000010101602068016841F4004101602068E3
:100A6000016821F40041016000F00CFA4D4A616810
:100A7000914201D84C4900E04C49884201D2012002
:100A800070BD4B492368B0FBF1F15E6826F03F066C
:100A90000E435E606368934206D94FF496735943E0
:100AA0004FF47A73B1FBF3F12368491C1E6A26F0F8
:100AB0003F06314319626168914210D84900401ED7
:100AC000B0FBF1F2521CC2F30B02042A01D2042043
:100AD00022E0B0FBF1F0401CC0F30B001CE0A26868
:100AE000F2B301EBC10303EB0116431EB3FBF6F3B4
:100AF0005B1C43F480431B0549D092B301EBC10258
:100B000002EB0111401EB0FBF1F0401CC0F30B00E2
:100B100040F4804040F400402168CA694CF6FF73FD
:100B20009A431043C861D4E9071001432068026862
:100B300022F0C00211430160D4E90301014320689F
:100B4000826848F2FF339A4311438160D4E905017A
:100B500008432168CA6822F0FF021043C86001E020
:100B60000EE016E02068016841F001010160256493
:100B7000202084F83D00256384F83E50002070BD9D
:100B800001EB4106431EB3FBF6F35B1CB3E7012008
:100B9000C2E701EB4101401EB0FBF1F0401CC0F385
:100BA0000B00B7E7A086010080841E0000093D000D
:100BB00040420F0010B586B0044614216846FFF786
:100BC000E9FB13492068884220D1124800210268BD
:100BD00042F002020260006800F002000590C020AE
:100BE00000901220CDE9010103200390042004901D
:100BF00069460948FFF712FE06481030016841F4C3
:100C000000110160006800F40010059006B010BDEE
:100C1000005400403038024000040240024881681D
:100C200002781144816070470C0000200B4810B519
:100C3000016841F400710160016841F48061016064
:100C4000016841F480710160032000F06FF80F200B
:100C500000F006F800F024F8002010BD003C02402F
:100C600070B50D4D04464FF47A712878B1FBF0F061
:100C70000A490968B1FBF0F000F00AFB48B9102CF2
:100C800007D200222146501E00F030F800206C6090
:100C900070BD012070BD00000C0000201800002075
:100CA0000A4808B5016841F480410160006800F419
:100CB000804000900548001F016841F080510160AC
:100CC000006800F08050009008BD000044380240E9
:100CD000002809DB00F01F0201219140400980003B
:100CE00000F1E020C0F8001170470000F0B40E4B96
:100CF0001B680C46C3F30223C3F10705042D00D97A
:100D00000425191D072901D2002300E0DB1E01265E
:100D100006FA05F1491E214099409E40761E164074
:100D20003143F0BC01F04DB90CED00E0064900F094
:100D3000070208684FF6FF03184040EA0220034A02
:100D400010430860704700000CED00E00000FA0559
:100D50002DE9F0470E46050065D0DFF81481D8F87C
:100D60000000F7B200F00700B04207D288F8007028
:100D7000D8F8000000F00700B04254D128683D4C7C
:100D8000810712D5400703D5206840F4E050206069
:100D90002878000703D5206840F460402060206870
:100DA000A96820F0F000084320602878C0072DD003
:100DB000304968680839012812D0022813D0032866
:100DC00011D00968890700292DDA216821F0030173
:100DD00001432160FFF724FE814641F2883A0EE08C
:100DE00009688903EFE709688901ECE7FFF718FE56
:100DF000A0EB0901514502D90320BDE8F087206826
:100E0000696800F00C00B0EB810FEFD1D8F800104A
:100E1000404601F00701B14207D90770006800F0B1
:100E20000700B04201D00120E7E72878400705D548
:100E30002068E96820F4E050084320602878000723
:100E400006D52068296920F4604040EAC10020608E
:100E500000F038F82168084AC1F30311515CC8401A
:100E60000649086006480068FFF7FAFE0020C4E75C
:100E7000003C024008380240603C00081800002096
:100E8000100000200448054900680968044AC1F3BD
:100E90008221515CC8407047180000200838024089
:100EA000703C00080448054900680968044AC1F319
:100EB0004231515CC8407047180000200838024099
:100EC000703C0008154810B5006810F00C0214487A
:100ED00013D04110042A0FD0082A0ED10F4C241F22
:100EE0002268236802F03F025B0207D52068C0F346
:100EF0008810A0FB010106E0084610BD2168C1F37F
:100F00008811A1FB00010023FFF7AEF92168C1F3AE
:100F10000141491C4900B0FBF1F010BD0838024006
:100F20000024F4002DE9F84F04006ED02078DFF89B
:100F30004C93C007A9F104054AD009F104000168E7
:100F4000C1F38101012908D00068C0F381000228A3
:100F50000AD1D9F80000400206D52868800337D5A9
:100F600060680028E1D033E06068B0F5803F10D0C1
:100F7000B0F5A02F286810D020F4803028602868B1
:100F800020F4802028606068A8B1FFF749FD06467C
:100F90000DE0286840F48030F4E740F480202860B9
:100FA000F7E700BFFFF73CFD801B642873D8286873
:100FB0008003F7D50CE0FFF733FD064605E000BFE0
:100FC000FFF72EFD801B6428F0D828688003F7D433
:100FD0002078DFF8AC8280074FF0000A3ED5A748A2
:100FE000001D016811F00C0F08D00068C0F38100EB
:100FF00002280BD1D9F80000400207D428688007E6
:1010000016D5E068012800D112E033E1E068B8B1FC
:101010000120C8F80000FFF703FD064605E000BF09
:10102000FFF7FEFC801B0228C0D828688007F7D590
:101030002868216920F0F80040EAC10028600DE02E
:10104000C8F800A0FFF7ECFC064604E0FFF7E8FC58
:10105000801B02281FD828688007F7D42078000753
:1010600022D5864F87486169703771B101210160CF
:10107000FFF7D6FC064604E0FFF7D2FC801B0228EF
:1010800009D838688007F7D50EE0C0F800A0FFF750
:10109000C7FC064605E082E0FFF7C2FC801B022881
:1010A0007DD838688007F7D42078400768D5DFF806
:1010B000CCB100270BF13C0BDBF80000C0000BD4D7
:1010C000DBF8001041F08051CBF80010DBF8000095
:1010D000012700F0805000906B4E3068C00510D49E
:1010E000306840F480703060FFF79AFC009005E0B3
:1010F000FFF796FC0099401A022850D83068C005C6
:10110000F6D55E4EA0686C3601280FD005283068F1
:1011100010D020F001003060306820F00400306012
:10112000A068B8B1FFF77CFC00900FE0306840F099
:101130000100F4E740F004003060F7E7FFF770FCCF
:101140000099411A41F28830814266D830688007A0
:10115000F4D50EE0FFF764FC009007E0FFF760FCB9
:101160000099411A41F28830814256D83068800790
:10117000F4D42FB1DBF8001021F08051CBF800102F
:10118000A069C8B33D49091D0968C1F3810102295D
:101190004AD00228504607D0C8F8600000E03CE082
:1011A000FFF73EFC04463BE04746C8F86000FFF707
:1011B00037FC064605E000BFFFF732FC801B022823
:1011C0002BD828688001F7D4D4E907010843A16A25
:1011D0002E4A490802EB0141626A41EA8211084342
:1011E00094F82C1040EA0161C9F80010012038661B
:1011F000FFF716FC044606E03EE000BFFFF710FCD8
:10120000001B022809D828688001F7D534E000BF08
:10121000FFF706FC001B022802D90320BDE8F88F67
:1012200028688001F4D427E00128F7D0D9F800001D
:10123000E26900F4800191421CD1226A00F03F0172
:10124000914217D147F6C071626A0140B1EB821F2B
:1012500010D1A26A4FF0FF3300F4403103EB520289
:10126000B1EB024F06D194F82C1000F07060B0EB97
:10127000016F01D00120D1E70020CFE70438024000
:1012800000004742800E4742007000400000FFFF10
:1012900010B5401EB0F1807F01D3012010BD4FF08A
:1012A000E02460610F21601700F08BFE0020A06138
:1012B00007202061002010BD70B590F83C20012A65
:1012C00032D0012480F83C40022280F83D2003689F
:1012D0005A689D6822F070060A6832435A60134BC0
:1012E00002689A4214D0B2F1804F11D0104B9A424A
:1012F0000ED0104B9A420BD00F4B9A4208D00F4B96
:101300009A4205D00E4B9A4202D00E4B9A4204D11B
:10131000496825F080031943916080F83D40002121
:1013200080F83C10084670BD022070BD00000140EE
:101330000004004000080040000C00400004014090
:10134000004001400018004010B5040003D094F89C
:101350003D0010B107E0012010BD002084F83C00E2
:10136000204600F01FF8022084F83D00211D20686F
:1013700000F002FC012084F8460084F83E0084F866
:101380003F0084F8400084F8410084F8420084F86B
:10139000430084F8440084F8450084F83D000020B0
:1013A00010BD000008B500680649884208D106480B
:1013B000016841F004010160006800F00400009041
:1013C00008BD0000000800404038024090F83D1081
:1013D000012901D001207047022180F83D100068EA
:1013E0001149884214D0B0F1804F11D00F49884282
:1013F0000ED00F4988420BD00E49884208D00E49C2
:10140000884205D00D49884202D00D49884204D156
:10141000816801F00701062903D0016841F001014C
:1014200001600020704700000000014000040040FF
:1014300000080040000C0040000401400040014052
:101440000018004070B5044690F83C0000250128C3
:1014500017D0012684F83C60022084F83D00206803
:10146000826822F0770222F47F4282600868502866
:1014700038D00DDC20284FD005DC90B3102811D1D6
:101480004AE0022070BD302846D040280AD13BE017
:1014900060282FD070280DD0B0F5805F03D0B0F554
:1014A000005F12D0012584F83D60002084F83C00E4
:1014B000284670BDCB68D1E90121206800F0C0FB4F
:1014C0002068816841F0770109E0CB68D1E901210A
:1014D000206800F0B5FB2068816841F4804181609C
:1014E000E1E719E0CA684968206800F0BBFB5021B9
:1014F000206806E0CA684968206800F0C4FB6021E3
:10150000206800F0A7FBCEE7CA684968206800F0B1
:10151000A9FB40212068F4E7226801461046F0E765
:1015200070477047F8B5016804460868CA684B6997
:1015300010F00F0F4FF0000559D003F0010602F430
:101540009077374365D0C10705D0D10503D5216C0D
:1015500041F001012164410705D5D90703D0216C71
:1015600041F002012164810705D5D90703D0216C20
:1015700041F004012164010707D502F02001314345
:1015800003D0216C41F008012164216C00293AD07C
:10159000800604D5900602D5204600F0B5FB2068F1
:1015A0004069216CC0F38010090700D460B3204665
:1015B00000F083FB20684069400621D52068143084
:1015C00050E8001F21F0400140E80012002AF5D148
:1015D000A06BA8B16C490165A06BFFF7FAF8002871
:1015E00011D0A06B016D01B0BDE8F0400847830643
:1015F0000FD593060DD52046BDE8F84000F084BB1A
:101600002046FFF78EFFF8BD2046FFF78AFF2564CE
:10161000F8BD266B2023012E79D1C60677D5D606D4
:1016200075D50868486800904869400640D5A16BA8
:10163000086840680004000CEAD0A28D8242E7D915
:10164000E085C869B0F5807F2DD020680C3050E867
:10165000001F21F4807140E80012002AF5D12068B3
:10166000143050E8001F21F0010140E80012002A68
:10167000F5D12068143050E8001F21F0400140E807
:101680000012002AF5D184F83E30256320680C3022
:1016900050E8001F21F0100140E80012002AF5D1A7
:1016A000A06BFFF74DF8A08DE18D401A81B229E0C3
:1016B000A08DE18D401A81B2E08D0028A8D00029CC
:1016C000A6D020680C3050E8002F22F4907240E839
:1016D0000026002EF5D12068143050E8002F22F0AB
:1016E000010240E80026002EF5D184F83E30256343
:1016F00020680C3050E8002F22F0100240E8002350
:10170000002BF5D12046FFF70BFFF8BDFFE70506DC
:101710002BD5150629D594F83D002128F5D1A068D0
:10172000B0F5805F01D12069B0B1206A411C21620F
:10173000216800784860E08C401E0004000CE084C2
:10174000E3D12068C16821F08001C1602068C168D0
:1017500041F04001C160D8E7206A0088C0F308006A
:101760004860206A801C2062E5E74006CDD550061F
:10177000CBD5CA68204622F04002CA6084F83D30CA
:1017800000F027F9C1E70000AB1C000870B50400A9
:1017900004D094F83D00002510B106E0012070BD92
:1017A00084F83C50204600F023F8242084F83D00C3
:1017B0002068C16821F40051C160204600F004FB9C
:1017C0002068016921F4904101612068416921F09C
:1017D0002A0141612068C16841F40051C16025645B
:1017E000202084F83D0084F83E00002070BD0000F9
:1017F00010B586B0044614216846FEF7CBFD1749A4
:101800002068884228D116480021026842F400323C
:101810000260006800F4003005901148103802683A
:1018200042F001020260006800F0010005900C2007
:1018300000900220CDE901010320039007200490CD
:1018400069460848FEF7EAFF002211462620FFF706
:101850004DFA2620FFF73CFA06B010BD00440040C8
:10186000403802400000024090F83E30202B0ED15C
:1018700059B152B190F83C30012B08D0012380F8C7
:101880003C300023036300F025BB01207047022099
:101890007047000010B500681A49884231D107220C
:1018A00019491A48FFF7E0FF04220121164801F008
:1018B0002CFB15490068091F0422086000204860BD
:1018C00008818872104812A1001F00F0F5F84FF44B
:1018D0007A7428B10D49072223465C310B480CE08D
:1018E000094804220CA1001F00F0E6F8002808D0E7
:1018F00006490622054823466331BDE8104000F042
:101900000FB810BD0044004004000020B8000020C3
:1019100054656D700000000048756D69000000009E
:101920002DE9F843044690F83D001F4616460D4643
:1019300020284CD1C5B1BEB194F83C00012846D056
:10194000012084F83C004FF00008C4F840802120BA
:1019500084F83D00FFF764F8A6848146E684A06819
:10196000B0F5805F03D004E00120BDE8F883206972
:1019700028B12E465FF0000584F83C800EE000267A
:10198000FAE78021204600F0C0FAA0B9AEB116F8FF
:10199000010B21684860E08C401EE084E08C4B46DF
:1019A0004FF0000200970028EBD14FF04001204695
:1019B00000F0ABFA30B10320D7E735F8020BC0F3E3
:1019C0000800E6E7202084F83D000020CDE7022053
:1019D000CBE77047FEE7000070B586B0142168467B
:1019E000FEF7D8FC16480024016841F08001016030
:1019F000016801F080010591016841F00101016079
:101A0000016801F001010591016841F002010160E6
:101A100000680C4E00F002004FF480450590002253
:101A200029463046FEF7F7FF01200095CDE9010475
:101A3000694630460394FEF7F1FE06B070BD000023
:101A4000303802400004024010B586B00024174828
:101A50000094019402940394049413490594016042
:101A60005321C0E901144FF6FE71C0E903148461EB
:101A7000FFF76AFC08B172B6FEE74FF480500090A1
:101A800069460A48FFF7DEFC08B172B6FEE7049427
:101A900004A906480594FFF70FFC002801D072B690
:101AA000FEE706B010BD00000008004070000020F6
:101AB000FEE7FEE77047704730B5002306E0C45CE0
:101AC000CD5CAC4201D0002030BD5B1C9342F6DB04
:101AD000012030BDFFF7A2B830B593B03021684681
:101AE000FEF758FC14210CA8FEF754FC1C480025F6
:101AF000016841F080510160006800F08050119051
:101B00001848016841F4804101600068022400F433
:101B10008040119001200090000401908001CDE9E7
:101B2000064008AA0420542182E813000B9068465E
:101B3000FFF7F8F908B172B6FEE70CA90F2081E8AB
:101B400031004FF48050CDE90F0502210CA8FFF7BA
:101B5000FFF8002801D072B6FEE713B030BD0000D8
:101B600040380240007000400248016841F47001B2
:101B70000160704788ED00E0F0B50268254C264D05
:101B8000264E274F274B4FF0804CA04209D060458E
:101B900007D0A84205D0B04203D0B84201D0984245
:101BA00004D122F0700E4A6842EA0E02A0421BD015
:101BB000604519D0A84217D0B04215D0B84213D012
:101BC000984211D0184DA8420ED0184DA8420BD003
:101BD000174DA84208D0174DA84205D0164DA8426F
:101BE00002D0164DA84203D122F44075CA682A4398
:101BF0004D6922F080022A4302608A68C2620A6844
:101C00008262A04201D0984201D109690163012199
:101C10004161F0BD000001400004004000080040A8
:101C2000000C00400004014000400140004401401D
:101C30000048014000180040001C00400020004007
:101C400010B5846842EA032224F47F440A43224305
:101C5000826010BD826822F070020A4342F00701E0
:101C60008160704710B5036A046A24F001040462BD
:101C7000846924F0F00444EA021423F00A020A43BF
:101C80008461026210BD10B5036A23F01003036281
:101C90008369046A23F4704343EA023224F0A00308
:101CA00043EA01118261016210BD10B5806B002111
:101CB000C185C184FFF735FC10BD01680C3151E8C6
:101CC000002F22F4907241E80023002BF5D1016827
:101CD000143151E8002F22F0010241E80023002BCB
:101CE000F5D1016B012909D101680C3151E8002FB0
:101CF00022F0100241E80023002BF5D1202180F8CA
:101D00003E1000210163704708B590F83E1022296B
:101D100001D0022008BD82684FF480539A4201D15D
:101D2000016921B1816A9A421BD04AB10AE0026876
:101D3000816A5268C2F308020A80816A891C08E03D
:101D4000026972B10268526802F07F020A70816A09
:101D5000491C8162C18D491E0904090CC18503D04B
:101D600019E002685268F1E70168CA6822F02002AF
:101D7000CA600168CA6822F48072CA6001684A6950
:101D800022F001024A61202180F83E10016B0129F6
:101D900003D0FFF77FFD002008BD0021016301682B
:101DA0000C3151E8002F22F0100241E80023002BF3
:101DB000F5D101680A68D20602D50A68496800911F
:101DC000818DFFF7ADFBE6E770B504460068016959
:101DD000E26821F44051114301612169A068E26980
:101DE00008436169114308432168CA6849F20C63DA
:101DF0009A430243CA6020684169A26921F4407194
:101E00001143416131492068884202D030498842FB
:101E100002D1FFF747F801E0FFF734F8E269002349
:101E2000192164253226B2F5004F626828D0A0FB44
:101E30000101930F9200FEF717FA0146B0FBF5F08F
:101E40006FF01802504301EB800006EB0010B0FB6E
:101E5000F5F000F0F002B1FBF5F002EB0012B1FB7F
:101E6000F5F06FF01803584301EB800006EB00100B
:101E7000B0FBF5F000F00F0021681044886070BDE1
:101E8000A0FB010192185B41FEF7EEF90146B0FBA1
:101E9000F5F00201B1FBF5F06FF01803584301EBC8
:101EA000800006EBC000B0FBF5F000F0F80002EB9C
:101EB0004002B1FBF5F0584301EB800006EBC00097
:101EC000B0FBF5F000F00700D6E70000001001407D
:101ED0000014014081628285C285002101642222B2
:101EE00080F83E2080F83C100168CA6842F4807295
:101EF000CA6001684A6942F001024A610068C1682B
:101F000041F02001C160002070472DE9F041984662
:101F100017460E460446069D27E0681C25D02DB1C5
:101F2000FEF77EFDA0EB0800A8421ED920680C3009
:101F300050E8001F21F4D07140E80012002AF5D1CA
:101F40002068143050E8001F21F0010140E8001221
:101F5000002AF5D1202084F83D0084F83E000020BE
:101F600084F83C000320BDE8F0812068006836EA70
:101F7000000004D00020B842CFD00020F3E70120B9
:101F8000F9E700000148FFF7CDBA0000B8000020D3
:101F9000FEE703B401984100009850EAC12018BF41
:101FA00004204A0D18BF40F0010040F2FF72B2EB6E
:101FB000515F08BF40F00200012808BF052002B0B1
:101FC00070470907090E002804DB00F1E02080F8C3
:101FD0000014704700F00F0000F1E02080F8141D9D
:101FE00070470000000000002DE9F04D2DED040BBE
:101FF0002DED0E8B96B0DDE92550279CDDF890A0E5
:1020000025F0004624F00048BAF1000F14BF01216A
:10201000002101EB4502FC4953184A1093422AD390
:10202000002814BF0123002303EB44030B44F749AA
:102030008B4220D358EA00019FEDF59B76D0DFF864
:10204000D8B35D4503D1BAF1000F05D188E0BAF1EC
:10205000000F08BF002100D0012101EB450111F55F
:10206000001F08D8002814BF0121002101EB440102
:1020700011F5001F0BD99DED261B9DED240B16B00D
:10208000BDEC0E8B04B0BDE8F04D00F069BE00273A
:10209000002DBCBFE149884521DAE1498845A8BF48
:1020A00002271CDAC3451ADCDE4901EB285114294A
:1020B00008DDC1F1340220FA02F101FA02F2824293
:1020C0000DD108E058B9C1F1140228FA02F101FA61
:1020D00002F2424503D101F00101C1F1020756EAC3
:1020E0000A0124D1002C22DA002D18BF022F01D0C2
:1020F000012F0AD00220FEF77CF916B0BDEC0E8B42
:1021000004B0BDE8F04D00F013BE0220FEF771F9F7
:1021100000F00EFE51EC100B00F008FF41EC100B2C
:1021200016B0BDEC0E8B04B0BDE8F08D18E09FED4D
:10213000BEAB9FEDBF8B002871D1B848804522D13E
:1021400005F1804010F5801008BFBAF1000F07D0EC
:10215000B3450ADC002CA8BF9DED260BE0DA0DE0AC
:10216000B0EE490AF0EE690ADAE7002C06DA9DEDD6
:10217000260B51EC100B00F0D9FE6FE0AE4878440E
:1021800090ED000BCCE7D8454DD1002C48DA2EB1AC
:1021900086423AD1BAF1000F42D126E0BAF1000FDF
:1021A00013D00220FEF725F900F0F6FD8DED020BAD
:1021B0009DED240B8DED000B10EE900A039961F359
:1021C0001E0003909DED020BAAE78DED02AB9DED85
:1021D000240B1AEE901A10EE900A8DED000B61F3AD
:1021E0001E0003909DED020B9AE78DED028B9DED95
:1021F000240B18EE901A10EE900A8DED000B61F38F
:102200001E0003909DED020B8AE709DA9DED240B79
:1022100051EC190B53EC102B00F050FF1EE020E0A6
:102220009DED240B7CE786421BDAB4F1804F0DD084
:10223000A4F10050B0F1FF5013D1002D11DB9DED42
:10224000240B51EC100B00F029FE07E09DED240B50
:1022500053EC102B51EC100B00F0C2BC41EC100BF6
:102260005EE79DED240B51EC100B00F0B5FDBAF1CB
:10227000000FCDE90E0142D19FED710B46B3A6F1DF
:10228000E040B0F17F600CD05E4538D1002D00DA1F
:10229000A7B3022F0CBF01204FF0FF3001F095F8DB
:1022A000DCE7002D01DD002C0DDA002D01DD002C16
:1022B0001FDB002D16DA002C14DB012F08BF9FED69
:1022C000620B3FF42DAFB0EE4A0AF0EE6A0A27E740
:1022D000022F18BF002D0CD0012F0AD1002DFFF6C0
:1022E0001FAF06E0002DB8BF002C08DA012F3FF425
:1022F00017AFB0EE480AF0EE680A11E71BE00120C4
:1023000000EBE57050EA070115D0791EB0EE498A5E
:10231000F0EE698A084308BF9FED4D8B4E480025BB
:10232000804570DD4D494E48884514DDB0420DDBD7
:10233000002C19DB2FE00120FEF75BF816B0BDEC96
:102340000E8B04B0BDE8F04D00F016BDB34502DCC5
:10235000002C09DC1FE0864202DA002C1BDA03E0C5
:102360005E452BDD002C16DD0220FEF742F800F062
:1023700013FD8DED020B53EC1A2B51EC180B01F0F1
:102380008BF8CDE900010399019861F31E000390D9
:102390009DED020BC4E60220FEF72BF800F00CFDC9
:1023A00010EE901A18EE900A8DED020B8DED008B59
:1023B00061F31E0003909DED020BB1E69DED0E0B47
:1023C00053EC192B51EC100B01F072FA9FED260B18
:1023D000CDE9080153EC102B9DED080B51EC100BCF
:1023E00001F05AF89FED221B53EC112B01F088F9F4
:1023F0009DED081B53EC112B01F04EF89FED1E1BB9
:1024000053EC112B3CE08CE0FFFF1F00FFFF0F009F
:10241000000000000000F03F0000F03F0000F07FEF
:102420000000404301FCFFFF000000000000F07FBF
:1024300000000000000000007E1B00000000000003
:102440000000000000000080000000000000F0FF1D
:10245000000000000000F0BF0000E0410000F04379
:10246000FFFFEF3F00000000000000000000D03F31
:10247000555555555555D53F000000000000E03F2B
:1024800001F03EF99DED080B41EC1A0B53EC102BBB
:1024900051EC100B01F000F853EC1A2B00F0FCFF8C
:1024A00041EC1A0B9FEDFE0B53EC102B9DED080B2E
:1024B00051EC100B00F0F0FF41EC1B0B9FEDFA0B01
:1024C00051EC1A0B53EC102B00F0E6FF41EC1A0B09
:1024D0009FEDF70B53EC102B9DED080B51EC100BFF
:1024E00000F0DAFF53EC1A2B01F0E2F941EC1A0B81
:1024F00051EC1B0B53EC1A2B00F024FD0690CDE998
:1025000006519DED060B53EC1B2B51EC100B01F00B
:10251000CFF953EC1A2B01F0F3F841EC100B00F05B
:10252000A1B90020B6F5801F0EDA9FEDE30B53EC46
:10253000102B9DED0E0B51EC100B00F0ADFFCDE913
:102540000E016FF034000E4600EB2650A0F2FF376C
:10255000C6F31300DA4940F07F6646F040568842E1
:10256000D8BF002408DDD7498142C8BF012403DC5D
:102570000024A6F580167F1CD348784400EBC400E5
:102580000F9690ED00CB9DED0E0B53EC1C2B51ECF8
:10259000100B01F08DF99DED0E0B41EC1B0B53EC74
:1025A0001C2B51EC100B00F0CDFC41EC100B51EC4E
:1025B000190B53EC102B00F081FD41EC1D0B51EC7D
:1025C0001B0B53EC1D2B00F067FF41EC1A0BBF48AF
:1025D0008DED10AB7844109590ED000B4FF000504E
:1025E00040EA660000EB84408DED080B00F500200A
:1025F00009909DED080B53EC1C2B51EC100B01F0D6
:1026000057F99DED0E1B53EC112B01F079F841ECBD
:10261000100B53EC102B9DED100B51EC100B00F038
:102620003BFF9DED080B41EC1C0B53EC102B9DED7B
:10263000100B51EC100B00F02FFF53EC1B2B01F093
:102640005FF853EC1C2B01F033F953EC1D2B00F019
:1026500023FF41EC1C0B53EC1A2B51EC1A0B00F02E
:102660001BFF41EC1B0B9A480621B0EE4B0AF0EE23
:102670006B0A784400F0E0FAB0EE401AF0EE601A0F
:10268000B0EE41DAF0EE61DA53EC1B2B51EC1B0B90
:1026900000F002FF53EC1D2B00F0FEFE9DED100B31
:1026A00041EC1B0B53EC1A2B51EC100B00F04AFCC5
:1026B00053EC1C2B00F0F0FE53EC1B2B00F042FC03
:1026C0009DED100B41EC1B0B53EC102B51EC100B40
:1026D00000F0E2FE41EC1D0B9FED7FEB53EC1E2B57
:1026E00000F030FC53EC1B2B00F02CFC0890CDE9E3
:1026F00008519DED080B53EC1E2B51EC100B01F013
:10270000D7F853EC1D2B01F0D3F853EC1B2B00F042
:10271000F7FF9DED080B41EC1D0B53EC102B9DEDCD
:10272000100B51EC100B00F0B7FE41EC1B0B53ECFF
:102730001A2B51EC1D0B00F0AFFE9DED080B41EC88
:102740001A0B53EC102B51EC1C0B00F0A5FE53ECB4
:102750001A2B00F0F7FB41EC1A0B51EC1B0B53EC5E
:102760001A2B00F0EFFB0C90CDE90C519DED0C0BFA
:1027700053EC1B2B51EC100B01F09AF853EC1A2B75
:1027800000F0BEFF41EC1B0B9FED550B53EC102BE3
:102790009DED0C0B51EC100B00F07EFE41EC1A0B82
:1027A0009FED510B51EC1B0B53EC102B00F074FE02
:1027B00041EC1B0B9FED4E0B53EC102B9DED0C0BC6
:1027C00051EC100B00F068FE53EC1B2B00F0BAFB31
:1027D00041EC100B4848784400EBC40090ED001B1E
:1027E00051EC100B53EC112B00F0ACFB41EC1B0B2C
:1027F000384600F0EAFDCDE9080153EC1B2B51EC03
:102800001A0B00F09FFB41EC100B3C48784400EBA6
:10281000C40090ED00CB51EC100B53EC1C2B00F0DE
:1028200091FB9DED081B53EC112B00F08BFB0690E8
:10283000CDE906519DED080B53EC102B9DED060BD9
:1028400051EC100B01F034F853EC1C2B01F030F874
:1028500053EC1A2B01F02CF853EC1B2B00F050FF1B
:1028600041EC100B9DED261B53EC102B8DED001B46
:1028700000959DED260B51EC100B00F00DFE9DED2B
:10288000000B41EC1A0B53EC102B9DED260B51EC79
:10289000100B01F00DF89DED061B53EC112B2FE0F2
:1028A000000000604715F73FFE822B654715F73F94
:1028B00044DF5DF80BAE543E0000000000004043D2
:1028C0008E9803007AB60B00FA1600002817000055
:1028D0003216000000000000000000000000084068
:1028E000000000E009C7EE3FFD033ADC09C7EE3FF8
:1028F000F5015B14E02F3EBEBE140000781400000A
:1029000000F0CAFD53EC1A2B00F01CFB9DED060BEA
:1029100041EC1A0B53EC102B9DED000B51EC100BFE
:1029200000F0BAFDCDE90C019DED0C0B51EC1A0B3A
:1029300053EC102B00F006FBCDE902010C46AA492E
:102940008C422FDB611A084318D19DED0C0B53EC20
:10295000102B9DED020B51EC100B00F0A9FF41EC88
:102960001B0B9FEDA30B51EC1A0B53EC102B00F03B
:10297000E9FA53EC1B2B00F08DFE2DD20220FDF75F
:1029800038FD00F009FA10EE901A18EE900A8DED5D
:10299000020B8DED008B61F31E0003909DED020B89
:1029A000FFF7BEBB944A24F00041914214D39349EF
:1029B000214408437FF4EFAC9DED0C0B53EC102B3E
:1029C0009DED020B51EC100B00F072FF53EC1A2B33
:1029D00000F060FE7FF6DFAC24F000408849894AB1
:1029E000002601EB205182422BDA481C4FF4801163
:1029F00021FA00F02044844AC0F30A517A44A1F23B
:102A0000FF3192ED000B814A8DED080BCA4020EAA0
:102A10000202C0F3130040F48010C1F1140120FA47
:102A200001F60992002CB8BF76429DED080B53ECDD
:102A3000102B9DED0C0B51EC100B00F039FFCDE984
:102A40000C019DED0C0B51EC1A0B53EC102B00F00C
:102A500079FA9FED6F0B0890CDE9085153EC102BDC
:102A60009DED080B51EC100B00F016FD41EC1B0B1B
:102A70009FED690B53EC102B9DED080B51EC100BE7
:102A800000F00AFD9DED0C0B41EC1C0B53EC102BE0
:102A90009DED080B51EC100B00F00AFF53EC1A2BC4
:102AA00000F02EFE9FED5E1B53EC112B00F0F4FCAA
:102AB00053EC1C2B00F046FA41EC1A0B51EC1B0BAB
:102AC00053EC1A2B00F03EFACDE902019DED020B0A
:102AD00053EC1B2B51EC100B00F0EAFE53EC1A2BBD
:102AE00000F00EFE9DED020B41EC1A0B53EC102B87
:102AF00051EC100B00F0D0FCCDE908014A489DEDE7
:102B0000080B0521784400F097F89DED081B51EC67
:102B1000100B53EC112B00F0BFFC9DED021B53EC8E
:102B2000112B00F0EDFDCDE906019DED020B53ECFC
:102B30001A2B51EC100B00F0AFFC53EC1A2B00F0E9
:102B400001FA9FED3B0B41EC1A0B53EC102B9DED62
:102B5000060B51EC100B00F0ABFE9DED060B41ECAB
:102B60001B0B53EC102B9DED020B51EC100B00F0E6
:102B700093FC53EC1B2B00F0A1FA53EC1A2B00F042
:102B800097FE9DED021B53EC112B00F091FE53ECD0
:102B9000192B00F0B5FDCDE9020101EB065001153E
:102BA0000029C8BF039015DC9DED020B324651ECA5
:102BB000100B01F00FF8FFF7ECF9042808BF00F044
:102BC000FBF832469DED020B51EC100B01F002F8C0
:102BD000CDE902019DED020B51EC180B53EC102BCB
:102BE00000F05AFCFFF73ABB0000904000000000E4
:102BF000FE822B654715973C00CC904000346F3F18
:102C000001FCFFFF0000E03F00130000FFFF0F008A
:102C100000000000432EE63F396CA80C615C20BE2A
:102C2000EF39FAFE422EE63FD0110000000000000E
:102C3000000000000000004070B504462DED028B3E
:102C40004D1E00EBC500B0EE408AF0EE608A90EDBC
:102C5000000B35F0060017D053EC182B51EC100B7D
:102C600000F01AFC41EC100B6D1E04EBC50090ED5A
:102C7000001B51EC100B53EC112B00F063F941ECED
:102C8000100B35F00600E7D1022D36D0042D1CD0F4
:102C9000062D1CBFBDEC028B70BD53EC182B51EC04
:102CA000100B00F0F9FB94ED0A1B53EC112B00F014
:102CB00049F953EC182B00F0EFFB94ED081B53EC93
:102CC000112B00F03FF941EC100B53EC182B51EC99
:102CD000100B00F0E1FB94ED061B53EC112B00F000
:102CE00031F953EC182B00F0D7FB94ED040B53ECA7
:102CF000102B00F027F941EC100B53EC182B51EC82
:102D0000100B00F0C9FB94ED021B53EC112B00F0EB
:102D100019F953EC182B00F0BFFB94ED001B53EC9A
:102D2000112B00F00FF9BDEC028B41EC100B70BDC4
:102D30009FED070B10B553EC102B9FED070B51ECDB
:102D4000100B00F0BBF941EC100B10BD00000000AF
:102D50000000000000000000000000000000F03F44
:102D600010B553EC112B51EC100B00F0EBF841ECCB
:102D7000100B10BD000000009FED050B10B553ECCB
:102D8000102B51EC100B00F099F941EC100B10BD19
:102D900000000000000000009FED050B10B553EC93
:102DA000102B51EC100B00F077FB41EC100B10BD19
:102DB00000000000000000709FED050B10B553EC03
:102DC000102B51EC100B00F067FB41EC100B10BD09
:102DD000000000000000001082B0CDE9000121F0E9
:102DE000004001909DED000B02B051EC100B7047BC
:102DF00008B5FDF71BFFFEF76FFEFEF7EDFD22485D
:102E00002049002401602149C0E901144FF48045A4
:102E1000C0E9034544618461C4610462FDF706FEB4
:102E200008B172B6FEE7184819499C3001604FF4AA
:102E30001651C0E901140C21C460C0E90441846149
:102E4000C461FEF7A3FC08B172B6FEE7FEF7FCFD15
:102E50000D4A104B5432012102F18C000095FDF710
:102E60001AFB094807220C499C30FEF7FDFC4FF481
:102E70007A740548E030FDF753FB2046FDF7BCFCB3
:102E8000F7E70000005400401C000020A08601006D
:102E900000440040000402400400002000B52DED75
:102EA000048B83B041EC190B00F036FC41EC180B9D
:102EB00018EE100A18EE901A8DED008B002818BF3E
:102EC0000120084320F00040C0F17F6000F1E040A5
:102ED000C00F14D019EE101A19EE900A8DED009B58
:102EE000002918BF0121084320F00040C0F17F6095
:102EF00000F1E040C00F04BF0120FDF77AFA51EC69
:102F0000180B03B0BDEC048B00BD70B5451800264E
:102F100005F8016C144601E02E55641C2846FDF7A7
:102F20001AFA401CA042F7D8284670BD81F0004133
:102F3000704780F00040704721F00041704720F05A
:102F40000040704710B591EA030F48BF83F000437B
:102F500000F1B684841A71EB030C05D2121943EB0D
:102F60000C03001B61EB0C01DFF824E14FEA115464
:102F7000A4EB135C1EEA430F18BF9EEA445F73D0B4
:102F800023EA0E03DCF1200E21EA045143F48013FE
:102F900032D322FA0CFE10EB0E0023FA0CFE41EBAA
:102FA0000E01CCF1200E03FA0EFE10EB0E0051F1D3
:102FB0000001B1F5801FCCF1200E32D201EB04519B
:102FC00012FA0EF2BDE8104058BF7047401C38BFDF
:102FD0005FEA420218BF7047002814BF20F00100CA
:102FE00041F100014FEA410313F5001F38BF70475C
:102FF000A1F1C04100F048BB012A43EB0302ACF150
:10300000200CDCF11F0E32BF4FF0000E23FA0CF340
:1030100010EB030041EB0451B4EB115FD0D0A1EBF6
:10302000045101F5801149085FEA300001EB0451B9
:103030000ED350F1000038BF12FA0EFE08D1BDE8E1
:103040001040C9E7401C38BF5FEA4202CAD1C3E75B
:10305000BDE810404FEA410313F5001F38BF704729
:10306000A1F1C04100F010BB9EEA445F08D011EA14
:103070005E0FBDE8104004BF01F000410020704722
:10308000BDE8104070B500F0B1FA00BF64FBBE3E71
:103090000000E0FF02494FF0000000F069BD00BFF2
:1030A0000000F87F491058BFC1F140415B1058BF84
:1030B000C3F140438B42EFF3008070472DE9C041DC
:1030C00030B4DFF8A0C23CEA111418BF3CEA131474
:1030D00000F0EC8081EA03051CEA111444EAD5747F
:1030E00018BF1CEA131500F0C780A4EB05044FF0CD
:1030F000004545EAC12145EAC32341EA505143EA6C
:10310000525304F17F74994204F500344FEAC02011
:103110004FEAC22208BF904200F09C804FEA13653C
:103120000FF24016765D4FEA134506FB05F7C7F12F
:10313000807706FB07F74FEAD737A7FB036876428D
:10314000C8F58038A7FB06CE38BFA8F1010807FBF9
:1031500008E64FF0000EA6FB028CE6FB03CEDCF186
:10316000000CCEF1004E38BFAEF1010EA6FB0C589C
:103170004FF000074FF00005E6FB0E87A1FB08C6E5
:10318000A0FB07CE16EB0E0645F10005E1FB076537
:1031900015F1E04E7EBFA4F580345FEA46066D412E
:1031A00016F1800745F100054FEA17274FEA06663A
:1031B00047EA0567A6F1DE46B6F1805F4FEA1525BE
:1031C0001FD9384624F0010C05EBC471BCF1FE6F29
:1031D00001EB0C1102D8F0BCBDE8008124425CBFB9
:1031E00001F5801E9EEAC47F02D4F0BCBDE80081D8
:1031F000244238D4F0BCA1F1C041BDE8004100F048
:1032000043BA4FEAD22242EA43524FEAD323A7FB02
:1032100002864FEAD02040EA415007FB03661EEACF
:103220000E0F4FEAD12105FB026658BFA6EB0056F0
:10323000B6EB00564FEA520E4EEAC37E18EB0E0E66
:1032400056EB530EBDD518EB02085E417F1C55F1BD
:103250000005B6E74FF480154FF000074FF0000669
:103260004FF00008ADE7F0BC4FF0000001F1C041A5
:1032700001F00041BDE8008111EA0C1F0CEA1315B2
:1032800000D00CE013EA0C1F00F025804FF0000086
:10329000F0BC81EA030101F00041BDE80081F0BC0F
:1032A000BDE8004181EA030100F0EEB9F0BCBDE8E1
:1032B000004170B500F09AF9097EFC3E00F007B8B5
:1032C00081EA03014FF0000001F00041704781EAFC
:1032D000030100F0D9B9F0BCBDE800414FF0000097
:1032E00021497047FFFDFBF9F7F5F4F2F0EEEDEB45
:1032F000E9E8E6E4E3E1E0DEDDDBDAD8D7D5D4D3F4
:10330000D1D0CFCDCCCBCAC8C7C6C5C4C2C1C0BF3F
:10331000BEBDBCBBBAB9B8B7B6B5B4B3B2B1B0AF45
:10332000AEADACABAAA9A8A8A7A6A5A4A3A3A2A129
:10333000A09F9F9E9D9C9C9B9A99999897979695E4
:1033400095949393929191908F8F8E8E8D8C8C8B80
:103350008B8A898988888787868585848483838208
:10336000828181800000FF070000F87F4FEA41035F
:103370004FEA5353A3F58063D3F11E03C8BFD3F1C3
:10338000210C0CDD4FF0004242EAC12242EA5052C9
:1033900032FA03FC8CEAE17CACEBE1707047102B55
:1033A000C4BF0020704703F5787CBCF1FF3F04D018
:1033B0006FF0004282EA2100704770B500F016F904
:1033C0004992248000207047F2E710F0004248BF85
:1033D0004042B0FA80F310FA03F10AD0C3F11D03A2
:1033E00003F580634FEA415002EB035202EBD12117
:1033F00070474FF000007047B0FA80F310FA03F105
:103400000AD0C3F11D0303F580634FEA41504FEA30
:10341000035202EBD12170474FF0000070470000CB
:1034200051EA030C17D41CF5801F58BFBCF5801F50
:1034300000F10680994218BF704708BF904270475C
:1034400007D711F5801F58BF13F5801F19D4994273
:103450007047894270471CF5801F08D5BCF5801F56
:10346000F7D58B4218BF704708BF824270474FF4B0
:10347000001C1CEB410F38BF1CEB430F01D28B42E9
:10348000704770B500F0B2F8922449004FF0005137
:103490004FF08053FFF706BEDFF848C170B51CEA55
:1034A000111E1EBF1CEA13159EEA0C0F95EA0C0FA5
:1034B00000F06F8081EA030423EA4C134EEAD47EC5
:1034C00021EA4C1141F4801143F48013AE44A1FB76
:1034D000024CA0FB0365AEF17F7E361955EB0C055F
:1034E000A1FB034C4CF10003A0FB021C16EB0C06E5
:1034F000654153F10003094218BF46F0010613F479
:10350000007F0BD14FEA03314FEA0530340341EA23
:10351000155140EA16506FF003020AE04FEAC3214A
:103520004FEAC520F40241EA555140EA56506FF087
:10353000020202EB2E4201EB025585EACE710AD05F
:103540005FEA440C18BF24F0004450F1000041F140
:10355000000120EAD47040F2FE7C624500D270BDCA
:10356000A84214BF4FF080444FF04044002E08BFE3
:103570000024BEF1806FA8BFA1F1C041BDE870403A
:1035800080F282804FF0000001F1C04101F0004163
:1035900070479EEA0C0F0CEA131518BF95EA0C0F42
:1035A00006D04FF0000081EA030E0EF0004170BD1E
:1035B00000F01CF88900013E00F007B800F009B8DF
:1035C0004FEA430C5FEA5C5C08D081EA030100F03B
:1035D0005BB84FEA410C5FEA5C5CF6D14FF000004B
:1035E000014970470000FF070000F87F0EF1020E4E
:1035F0002EF0030E5EF8046B364205D4012A43EB2D
:10360000030515F5001F12D8012841EB010C1CF52C
:10361000001F0CD80ED14FEAD17C15F5001F0CEB22
:103620004C0C0CF1020C08BF4CEBD37C04E04FF0C7
:10363000080C01E04FEAD37C0CEB4C0526FA05F6AA
:1036400006F00706B6F1040C06D20EEB860CBDE8B8
:1036500070404CF0010C6047DFE80CF0090B0202EF
:103660004FF000414FF00000A1F5002170BD194658
:103670001046012851EB010418BFD4F5001484BF93
:10368000002001F0004170BD0808A0F500114FEACC
:103690003101704753EA010C17D41CF5801F58BF45
:1036A000BCF5801F00F106808B4218BF704708BF31
:1036B0008242704707D713F5801F58BF11F5801F4E
:1036C00019D48B4270479B4270471CF5801F08D568
:1036D000BCF5801FF7D5994218BF704708BF9042CC
:1036E00070474FF4001C1CEB430F38BF1CEB410F1D
:1036F00001D2994270470FB40CBC03BCFFF7C1BEA6
:1037000091EA030F10B581F000413FF523AC83F03F
:10371000004300F0D5B800002DE9F04101F5801C10
:10372000BCF5001FC0F2A9804FEA115C21EA0C51E0
:103730000CF1FD0C41F480115FEA5C0C0CF5C07CCF
:1037400001D34000494130A4890241EA90518702E7
:103750008E0E0A0CA45D04FB04F602FB06F6C6F10D
:103760004046A4FB0662F60D46EA422606FB06F436
:10377000A4FB01235242C3F1404338BF5B1EA6FBAA
:1037800002420024E6FB0324D20B42EA4446A6FB95
:103790000623A1FB02E2A3FB07E4E3FB61426442D0
:1037A000C2F1404E38BFAEF1010EA6FB04234FF02C
:1037B0000002E6FB0E32A2FB03463400E2FB626429
:1037C000A1FB06E6A4FB07E8E4FB61687642C8F1CA
:1037D000405838BFA8F10108A2FB06E4A3FB08E5A6
:1037E000E2FB6854A1FB05E6A7FB04E8E1FB648665
:1037F00018F1200556F10006A809A8F11B08B10927
:1038000008F03F08B8F10A0F40EA86601CD901EBC6
:103810000C51BDE8F08100BFFCF5EEE8E2DDD8D345
:10382000CFCBC7C3C0BDB9B6B4B1AEACA9A7A5A331
:10383000A19F9D9B9A9896959392908F8D8C8B8942
:103840008887868584838281A0FB006800FB01F263
:1038500008EB4208B8EB872807D5341858EB010469
:10386000D5D5401C51F10001D1E7341A78EB0104A1
:10387000CDD4401E71F10001C9E75FEA4C0C5FEA4C
:103880009C5C0DD105D34FF0000001F00041BDE874
:10389000F081BDE8F04170B5FFF7A8FE6DDBFFBE1B
:1038A000BDE8F0414FF00000004970470000F87F8C
:1038B00010B591EA030F48BF83F000433FF54AABD0
:1038C000841A71EB030C07D212198CF0004C43EBF5
:1038D0000C03001B61EB0C01DFF8A4E14FEA11546B
:1038E000A4EB135C1EEA430F18BF9EEA445F00F08E
:1038F000B08023EA6E03524221EA0451C3EB6E0307
:1039000038BF5B1EDCF1200E25D322FA0CFE10EB33
:103910000E0043FA0CFE41EB0E01CCF1200E03FA2F
:103920000EFE10EB0E0051F10001CCF1200E29D457
:1039300012FA0EF201EB0451BDE8104058BF704777
:10394000401C1CBFB2F1004F704700280CBF491C3F
:1039500020F00100704712EB020E43EB030218BF88
:103960004FF0010E4EEA4202ACF1200CDCF11E0ECB
:1039700054D943FA0CFE10EB0E0051F1FF31CCF19B
:103980001E0ED5D50EF1010E12FA0EFE404141EB8E
:10399000010101EB445C5FEA5C5C10D910EBDE7066
:1039A00001EB045138BFBEF1004FBDE8104018BF15
:1039B000704700280CBF491C20F00100704730D22E
:1039C0004FEAD42C11F5001124F400641BD0B1FA95
:1039D00081F20B3AA41AA41ED2F12003914030FACE
:1039E00003F31943904001EBCC71002C01EB04511F
:1039F000BDE81040A8BF704701F1C0414FF0000082
:103A000001F000417047B0FA80F310FA03F100D1E1
:103A100010BDE41A173C4805C90AE4E701EB04515C
:103A200010BD491001EB0451BDE810404FEA3000D1
:103A300002E04FF0000170474A0008BF0042F8D092
:103A4000B2F5001F28BF704701F000414FF00000A1
:103A500070479EEA445F07D011EA5E0FBDE8104050
:103A600004BF002100207047BDE8104070B5FFF78B
:103A7000BDFD00BF40DFF63E83F0004110467047B9
:103A80000000E0FF43004FEAD30C4FEA3C0C4340F8
:103A90001FBF40070CF1605113F0FE4F70471CF040
:103AA000006F03D100200CF0004170470CF0004380
:103AB00043EA507010B540EACC0000F00EF800BFA9
:103AC000000000924FEA0001FFF7DEBD4FF0004119
:103AD0004FF00000A1F5002170470EF1020E2EF00C
:103AE000030E5EF8044B244204D44FEA4102B2F1C3
:103AF0007F4F11D84FEA4003B3F17F4F0CD80ED15E
:103B00004FEAD07CB2F17F4F0CEB4C0C0CF1020C65
:103B100008BF4CEBD17C04E04FF0080C01E04FEA09
:103B2000D17C0CEB4C0324FA03F404F00704B4F149
:103B3000040C06D20EEB840CBDE810404CF0010CD6
:103B40006047DFE80CF0070802024FF00040A0F5E4
:103B5000800010BD0846420018BFD2F1807288BFB5
:103B600000F0004010BD4FF04070E1EE100A7047C9
:103B70000CF00F03092B08BF082000F059800A2B16
:103B80000BD0082B18BF704708BF1CF0400F0AD09D
:103B90004FF000004FF0000170471CF0400F18BFBD
:103BA0004FF0004070471CF0100F08D020F0704319
:103BB00000F07F4242EAD3014FEA4370704700F0C1
:103BC000604021F07F4242EA000201F07F4040EA7B
:103BD000727070474FF0FF0C4CF4E06C1CEA11530C
:103BE0001CBF9CEA030C9445C2BFDA4201EB0251B0
:103BF0007047002B0DD0BCF1000F0FD0002A01F050
:103C00000041A4BF41F0E04141F07F614FF000006E
:103C1000704701F000414FF00000704750EA013357
:103C20004FF09B0C18BF4CF0806C7FF433AA7047A8
:103C30001CF4801F11D01CF4E02F03D06FEACC31AC
:103C4000490070474FF04050EFF3008222F070427D
:103C500042EA000282F3008870474FF0000070478C
:103C6000000000000000000001020304060708092C
:103C70000000000001020304000000000000F03F0B
:103C8000000000000000F83F0000000000000000FD
:103C90000000004003B8E23F000000000000000008
:103CA00006D0CF43EBFD4C3E033333333333E33F96
:103CB000FFAB6FDBB66DDB3F4D268F515555D53FC2
:103CC00001411DA96074D13F65DBC9934A86CD3F90
:103CD000EF4E454A287ECA3F3E5555555555C53F7E
:103CE00093BDBE166CC166BF2CDE25AF6A56113F70
:103CF000F16BD2C541BDBBBED0A4BE726937663E72
:103D00000000000000000000283D00080000002026
:103D10001C000000C4010008443D00081C000020F5
:103D20006C070000E0010008000000000000000037
:103D30000000000001000000100000000000000072
:043D40000024F40067
:040000050800018965
:00000001FF
